{
  "contractName": "Faucet",
  "abi": [
    {
      "inputs": [],
      "name": "owner",
      "outputs": [
        {
          "internalType": "address",
          "name": "",
          "type": "address"
        }
      ],
      "stateMutability": "view",
      "type": "function",
      "constant": true
    },
    {
      "stateMutability": "payable",
      "type": "receive",
      "payable": true
    },
    {
      "inputs": [],
      "name": "addFunds",
      "outputs": [],
      "stateMutability": "payable",
      "type": "function",
      "payable": true
    },
    {
      "inputs": [],
      "name": "getAllFunders",
      "outputs": [
        {
          "internalType": "address[]",
          "name": "",
          "type": "address[]"
        }
      ],
      "stateMutability": "view",
      "type": "function",
      "constant": true
    },
    {
      "inputs": [
        {
          "internalType": "uint256",
          "name": "amount",
          "type": "uint256"
        }
      ],
      "name": "withdraw",
      "outputs": [],
      "stateMutability": "nonpayable",
      "type": "function"
    }
  ],
  "bytecode": "0x608060405234801561001057600080fd5b50336000806101000a81548173ffffffffffffffffffffffffffffffffffffffff021916908373ffffffffffffffffffffffffffffffffffffffff16021790555061083a806100606000396000f3fe6080604052600436106100435760003560e01c80632e1a7d4d1461004f5780636fbbb55d146100785780638da5cb5b146100a3578063a26759cb146100ce5761004a565b3661004a57005b600080fd5b34801561005b57600080fd5b5061007660048036038101906100719190610461565b6100d8565b005b34801561008457600080fd5b5061008d6101fc565b60405161009a919061057e565b60405180910390f35b3480156100af57600080fd5b506100b86102f6565b6040516100c591906105af565b60405180910390f35b6100d661031a565b005b60008054906101000a900473ffffffffffffffffffffffffffffffffffffffff1673ffffffffffffffffffffffffffffffffffffffff163373ffffffffffffffffffffffffffffffffffffffff1614610166576040517f08c379a000000000000000000000000000000000000000000000000000000000815260040161015d90610627565b60405180910390fd5b8067016345785d8a000081106101b1576040517f08c379a00000000000000000000000000000000000000000000000000000000081526004016101a8906106b9565b60405180910390fd5b3373ffffffffffffffffffffffffffffffffffffffff166108fc839081150290604051600060405180830381858888f193505050501580156101f7573d6000803e3d6000fd5b505050565b6060600060015467ffffffffffffffff81111561021c5761021b6106d9565b5b60405190808252806020026020018201604052801561024a5781602001602082028036833780820191505090505b50905060005b6001548110156102ee576002600082815260200190815260200160002060009054906101000a900473ffffffffffffffffffffffffffffffffffffffff168282815181106102a1576102a0610708565b5b602002602001019073ffffffffffffffffffffffffffffffffffffffff16908173ffffffffffffffffffffffffffffffffffffffff168152505080806102e690610766565b915050610250565b508091505090565b60008054906101000a900473ffffffffffffffffffffffffffffffffffffffff1681565b6000600360003373ffffffffffffffffffffffffffffffffffffffff1673ffffffffffffffffffffffffffffffffffffffff16815260200190815260200160002054036103ce573360026000600154815260200190815260200160002060006101000a81548173ffffffffffffffffffffffffffffffffffffffff021916908373ffffffffffffffffffffffffffffffffffffffff160217905550600160008154809291906103c890610766565b91905055505b34600360003373ffffffffffffffffffffffffffffffffffffffff1673ffffffffffffffffffffffffffffffffffffffff168152602001908152602001600020600082825461041d91906107ae565b92505081905550565b600080fd5b6000819050919050565b61043e8161042b565b811461044957600080fd5b50565b60008135905061045b81610435565b92915050565b60006020828403121561047757610476610426565b5b60006104858482850161044c565b91505092915050565b600081519050919050565b600082825260208201905092915050565b6000819050602082019050919050565b600073ffffffffffffffffffffffffffffffffffffffff82169050919050565b60006104e5826104ba565b9050919050565b6104f5816104da565b82525050565b600061050783836104ec565b60208301905092915050565b6000602082019050919050565b600061052b8261048e565b6105358185610499565b9350610540836104aa565b8060005b8381101561057157815161055888826104fb565b975061056383610513565b925050600181019050610544565b5085935050505092915050565b600060208201905081810360008301526105988184610520565b905092915050565b6105a9816104da565b82525050565b60006020820190506105c460008301846105a0565b92915050565b600082825260208201905092915050565b7f4f6e6c79206f776e65722063616e20646f206974000000000000000000000000600082015250565b60006106116014836105ca565b915061061c826105db565b602082019050919050565b6000602082019050818103600083015261064081610604565b9050919050565b7f416d6f756e74206d757374206265206c6f776572207468616e20302e3120657460008201527f6800000000000000000000000000000000000000000000000000000000000000602082015250565b60006106a36021836105ca565b91506106ae82610647565b604082019050919050565b600060208201905081810360008301526106d281610696565b9050919050565b7f4e487b7100000000000000000000000000000000000000000000000000000000600052604160045260246000fd5b7f4e487b7100000000000000000000000000000000000000000000000000000000600052603260045260246000fd5b7f4e487b7100000000000000000000000000000000000000000000000000000000600052601160045260246000fd5b60006107718261042b565b91507fffffffffffffffffffffffffffffffffffffffffffffffffffffffffffffffff82036107a3576107a2610737565b5b600182019050919050565b60006107b98261042b565b91506107c48361042b565b9250827fffffffffffffffffffffffffffffffffffffffffffffffffffffffffffffffff038211156107f9576107f8610737565b5b82820190509291505056fea264697066735822122082e9ca0ee1334eacac22c3c2dfae1b4543982759696e85ad81857f0294e0860064736f6c634300080d0033",
  "immutableReferences": {},
  "source": "// SPDX-License-Identifier: MIT\npragma solidity >=0.4.22 <0.9.0;\n\nimport \"./Ownable.sol\";\nimport \"./IFaucet.sol\";\n\ncontract Faucet is Ownable, IFaucet {\n    uint totalFunders;\n    mapping(uint => address) lutFunders;\n    mapping(address => uint) funders;\n\n    receive() external payable {  }\n\n    modifier limit(uint amount) {\n        require(amount < 100000000000000000, \"Amount must be lower than 0.1 eth\");\n        _;\n    }\n\n    function addFunds() override external payable {\n        if (funders[msg.sender] == 0) {\n            lutFunders[totalFunders] = msg.sender;\n            totalFunders++;\n        }\n        funders[msg.sender] += msg.value;\n    }\n\n    function getAllFunders() external view returns(address[] memory) {\n        address[] memory _funders = new address[](totalFunders);\n\n        for (uint i = 0; i < totalFunders; i++) {\n            _funders[i] = lutFunders[i];\n        }\n\n        return _funders;\n    }\n\n    function withdraw(uint amount) override external onlyOwner limit(amount) {\n        payable(msg.sender).transfer(amount);\n    }\n}\n\n// 0x00000000000000000000000000000000000000000000000000000000f8a8fd6d\n// 00000000000000000000000000000000",
  "sourcePath": "/home/sygorchakov/Documents/learning/my_crypto/blockchain/contracts/Faucet.sol",
  "compiler": {
    "name": "solc",
    "version": "0.8.13+commit.abaa5c0e.Emscripten.clang"
  },
  "schemaVersion": "3.4.7",
  "updatedAt": "2022-05-22T12:40:35.107Z",
  "networkType": "ethereum",
  "devdoc": {
    "kind": "dev",
    "methods": {},
    "version": 1
  },
  "userdoc": {
    "kind": "user",
    "methods": {},
    "version": 1
  }
}